:020000040001F9
:10B00000802F0020D9B00100F3B00100F5B001009D
:10B010000000000000000000000000000000000030
:10B02000000000000000000000000000F7B0010078
:10B030000000000000000000F9B00100FBB00100BA
:10B0400075B30100FDB001007DB40100FDB0010049
:10B05000FDB0010000000000B9B10100FDB0010029
:10B06000FDB00100FDB00100FDB00100FDB0010028
:10B07000FDB00100FDB00100FDB00100FDB0010018
:10B08000FDB00100C9B30100FDB00100FDB0010039
:10B09000E9B30100FDB00100F1B30100FDB0010012
:10B0A000FDB00100FDB00100000000000000000044
:10B0B0000000000000000000000000000000000090
:10B0C0000448854600F066F800480047EDD00100CE
:10B0D000C046C046802F00200321094802680A4369
:10B0E0000260084802680A43026007488047074830
:10B0F0000047FEE7FEE7FEE7FEE7FEE7FEE70000AB
:10B10000240500405405004011B40100C1B0010005
:10B1100030B50B46014600202022012409E00D46EF
:10B12000D5409D4205D31D469540491B2546954077
:10B1300040191546521E002DF1DC30BD03460B436D
:10B140009B0703D009E008C9121F08C0042AFAD2DD
:10B1500003E00B780370401C491C521EF9D2704763
:10B16000D2B201E00270401C491EFBD2704700229F
:10B17000F6E710B513460A4604461946FFF7F0FFF6
:10B18000204610BD421C0178401C0029FBD1801ACA
:10B1900070470000064C0125064E05E0E36807CC29
:10B1A0002B430C3C98471034B442F7D3FFF78CFF85
:10B1B00024E9010044E90100F0B50024FF268BB02A
:10B1C0000136012527460694304602F0CFFC0028C0
:10B1D00007D054484068284203D0304602F0BEFCF5
:10B1E0002C43361D6D007F1CB6B2042FECD3FF2517
:10B1F0007D35284602F0BAFC002809D0284602F026
:10B20000ADFC6807044306AA0121002002F092FC6D
:10B21000454D200714D00127002627420CD0434873
:10B22000B200111808690969C004C00E8903AA5840
:10B23000890F002A00D090477F00761C042EECD3A3
:10B24000002C6DDA00200890401E63E02819403081
:10B250000778B906890E009100214156491C49D052
:10B2600009A9009802F028F9002843D0B8090190F4
:10B27000009801F063FB80002F580198002F02D046
:10B28000032802D00DE0032834D1009808ABC2088F
:10B2900041079446985C490F01228A401043624658
:10B2A00098540098052109078000401807210902D9
:10B2B0004018006806A98003800F0290009802F0F1
:10B2C000FBF80028029802D0022802D012E00328DE
:10B2D00010D10198032808D1029802281ED002211B
:10B2E000009802F009FC761CF6B2002F02D00199FA
:10B2F0000098B847641C042CA8D3002E10D06A46CE
:10B300000121002002F016FC06990098884207D01F
:10B310000690089800263446099097E70321DFE756
:10B320000BB0F0BD006300407426002000650040B3
:10B330008307FF22DB0E9A408907090E99400028F7
:10B340000BDA0007000F0838830808489B0018181C
:10B35000C36993430B43C3617047830804489B0050
:10B360001B181868904308431860704700ED00E010
:10B3700000E400E0F8B5FF20013002F0A5F8002459
:10B3800001250E4E0E4F002807D00E480460012004
:10B39000B0607D70002001F0D9FAFF20053002F086
:10B3A00093F8002808D00748001D04600220B06010
:10B3B000BD70012001F0CAFAF8BD00000003004092
:10B3C000602600200001004010B5064900200860FA
:10B3D00048608860C860034940390860486003F0ED
:10B3E00019F810BD4011014010B502F085FF10BDE5
:10B3F00010B506484068002805D08047002801D0D5
:10B4000000F07CFA10BD01F063FD10BDA820002003
:10B4100010B502F00BF8002805D011490F4848601C
:10B42000C8131049886102F017F8002802D00E49AD
:10B430000120886002F026F800280AD00B48016835
:10B44000012904D00A49016001680129FCD1C02109
:10B45000416109490748086010BD0000DFFF07C0CF
:10B4600000050040006C00400006004000EC064073
:10B47000759300000024F400BC20002010B50249A0
:10B48000024803F0A7F810BDBC26002000200040B1
:10B490000FB410B503A9044B044A029800F046F813
:10B4A00010BC08BC04B018475BCE0100A4200020EB
:10B4B0000FB410B504A9074B02AA039800F036F8A0
:10B4C000044602A9002000F09AF8204610BC08BCEF
:10B4D00004B01847FFB5010030B47446641E2578E7
:10B4E000641CAB4200D21D46635D5B00E31830BCB8
:10B4F000184702E008C8121F08C1002AFAD1704795
:10B500007047002001E001C1121F002AFBD17047E3
:10B51000202804DA012181400348014201D00120A2
:10B520007047002070470000FC06FFBCFFB581B0EB
:10B530000546002706E025280AD0049A039990477B
:10B540006D1C7F1C28780028F5D1384605B0F0BD69
:10B55000002269786D1C10462E2913D169780422C7
:10B560006D1C2A2909D102996D1C01C9029109E0BB
:10B570000A235843303808186D1C29780B46303B95
:10B58000092BF5D92B78002BDFD0632B07D0732B39
:10B5900010D0049A1846039990477F1C2DE0029919
:10B5A0006C460B782370091D0291002161706E4674
:10B5B000012104E0029940C902910021C9435207C8
:10B5C0000AD5002400E0641C84420DDA8C42FADBC8
:10B5D000325D002AF7D107E0002400E0641C8C42B1
:10B5E000FCDB305D0028F9D13F1904E03078049A83
:10B5F000761C03999047641EF8D26D1CA2E70A6876
:10B60000531C0B6010707047F7B584B006460025D8
:10B610001788158020300290407B1446002806D001
:10B620003A462146059800F059FE050009D1B07848
:10B63000002823D0059886462088001DB84202D9EC
:10B640000C2007B0F0BD684679DF0028F9D12188C9
:10B6500003207246505420881921401C80B220805B
:10B66000115420887146401C80B2208041186846E1
:10B67000008803F043F8218840182080F0780028E3
:10B6800017D0218803230A46F356C91C0598B942EE
:10B69000D6D80221815421880122491C89B22180F7
:10B6A00042542188491C89B2218043542088401C7F
:10B6B00020807068002817D021880023C3560A46CE
:10B6C000C91C0598B942BBD80221815421880A229D
:10B6D000491C89B2218042542188491C89B22180A9
:10B6E00043542088401C2080308900280AD00094D0
:10B6F00030460197062202210830059B03F04CF8E2
:10B7000005009ED1308A00280AD000943046019767
:10B71000072203211030059B03F03EF8050090D16D
:10B72000308B00280AD0009430460197152214214E
:10B730001830059B03F030F8050082D1306A0028EC
:10B7400006D03B462246059901F068F90500D8D19C
:10B75000706A002806D03B462246059901F0E2FDBA
:10B760000500CED10298007B002807D03B46224638
:10B770003046059902F066FC0500C2D130780028F9
:10B7800007D03B4622463046059901F0FFFD0500F3
:10B79000B7D1284655E70000174A0021535C002B1B
:10B7A00001D0012203E0491C0629F7D300221349E6
:10B7B000012806D002280BD0032810D0042818D165
:10B7C00012E04878002803D0002A01D001207047F9
:10B7D0008878002803D0002A01D002207047C8785A
:10B7E000002801D0032070470879002801D00420E8
:10B7F0007047002070470000292000207824002096
:10B8000010B501220221002000F01AFF002801D00B
:10B81000072812D107220221012000F011FF002881
:10B8200001D0072809D100210A22084600F008FFAC
:10B83000002801D0072800D1002010BD10B502203B
:10B8400000F0B4FD10BD000070B50024064D06E008
:10B850006968E000085C012101F0CAFE641C2878D8
:10B860008442F5D3002070BD54200020F8B5154661
:10B870000C460646052A01D20720F8BD01F090FFCC
:10B88000002803D101F05EFF0028F6D11049002006
:10B890004E600C70C8608D6008610E4D0DE0E000D8
:10B8A00069688019009181786A46517000780A4A67
:10B8B000694601F0E9FE0028DFD12046641EE4B2AB
:10B8C0000028ECD1054A0021024800F04DF8F8BDEF
:10B8D00054200020FCE8010081CE010095CD01003C
:10B8E000BFF34F8F04490348C860BFF34F8F00BFB9
:10B8F000FDE700000400FA0500ED00E00EB50021B0
:10B90000029000916A4601910148FFF7E9FF0EBDE0
:10B910000140000010B58268C368934203D001F073
:10B9200089FA002010BD052010BD002906D0002A8C
:10B9300002D0531E134203D0092070470E207047D7
:10B940000160838000218160C1600846704710B5A6
:10B950008268C3689A1A83889A4203D801F074FAFD
:10B96000002010BD042010BD0A4B5B68002B07D0DF
:10B97000002A07D0002805D00068037C002B03D0E4
:10B980000820704707207047002303744174426108
:10B990001846704778200020F8B506469007002525
:10B9A00014460F46002821D1002C1FD002F0BCFA0B
:10B9B0000F4805704570877044600446103C656010
:10B9C0002570657001250B482D05056003211420A5
:10B9D000FFF7AEFC08480560084DAE60032111205A
:10B9E000FFF7A6FC6868A0600020F8BD0720F8BD3E
:10B9F0007820002080E200E000E100E00015014036
:10BA0000FEB51F4B5B68002B30D000282ED00529D7
:10BA100001D20720FEBD4369002B27D0437C012BB8
:10BA200026D00027029104460025694616460D706F
:10BA3000684600F0D1F801A802F098FE002819D05D
:10BA4000012101700F4944604968816002990761D2
:10BA50004661C16068460A490079487068460078C6
:10BA600000F0D8F802F08AFC2846FEBD0820FEBD92
:10BA70000F46D7E768460425007800F0CBF8F3E7D7
:10BA8000782000200015014010B5084949680029B8
:10BA90000AD0002808D04169002905D0002101748E
:10BAA000022102F093FC10BD082010BD7820002078
:10BAB00070B50B4D0146AE780A48FFF72BFF0446E0
:10BAC000002E0AD00020A870691C0122C81D01F0B8
:10BAD000AFFE002801D0FFF711FF204670BD000027
:10BAE00088200020F8260020F0B5274E89B01F4698
:10BAF0000D00044672601CD0A888296882B22348D1
:10BB0000FFF713FF002815D1A889A96882B21F4842
:10BB10001030FFF70AFF00280CD120221C4968468C
:10BB2000FFF70CFB60690690207C002804D00121FF
:10BB300003E0072009B0F0BD0021684601750777D2
:10BB4000607C002800D00E2069464875E0680290AD
:10BB5000A068039020680190606800900A480D4A30
:10BB6000083001F025FE0028E4D1B0702068401CA8
:10BB7000E0D00548083001F089FE03490122491C44
:10BB8000C81D01F055FED5E788200020F8260020CA
:10BB900004E901002DE5010010B501460C48FFF74E
:10BBA000D6FE040012D10B4801F03AFF00280DD157
:10BBB000084907480839FFF7ADFE002806D10549B6
:10BBC00001220839034801F0CBFE0446204610BD8F
:10BBD000082700209020002030B5EFF3108172B6C6
:10BBE000094A54680123002C04D00370002900D1B5
:10BBF00062B630BD5360054B1D68054C254015608D
:10BC00001C6000220270F1E79C20002080E100E02F
:10BC1000FC06FFBC08494A68002A0CD000280AD15B
:10BC2000EFF3108072B60A68044B1A6000224A6073
:10BC3000002800D162B670479C20002000E100E09F
:10BC4000F8B5074608680C460526411C0125360252
:10BC5000002906D02946814019488160206801F0FA
:10BC600030FF6068411C02D0002101F021FF3968DB
:10BC7000A06989194862607D217D3A68084391195D
:10BC8000C866386806CC80194261C160207B083CD8
:10BC9000012814D1A068411C02D0002101F008FF46
:10BCA000E068411C05D0854005488560E06801F0EA
:10BCB00008FF3A68E1689219A06891601061F8BDC8
:10BCC00000050050F0B50C4693B01F216A46118064
:10BCD000072600279180002809D0C17849070DD593
:10BCE00002A9FFF791FC002809D102AD01E000256F
:10BCF0001780002C0ED0E078002802D0304613B018
:10BD0000F0BD01AA0AA92046FFF77EFC0028F6D163
:10BD10000AAA02E068460022878068468088C3B28B
:10BD200068460088C1B2284672DFE8E7FFB581B0F7
:10BD30001E460A9F1346040047D0002B45D0504DA5
:10BD4000012028700020E870202219464D48FFF796
:10BD5000F5F900206F61C0432E6128812846072134
:10BD60001830FFF704FA47483C212030FFF7FFF96D
:10BD70004448217820300170A1788170E178C17049
:10BD8000617841703F4A65692369556311461363C1
:10BD90002031E368A268CB608A603A49E369A2690E
:10BDA000CB638A63616A00291AD001463C3102469E
:10BDB000483241628A60636A1B880B80616A436A09
:10BDC000898899800021436A07E00E2005B0F0BD04
:10BDD000656AAD686D5C5554491C9D888D42F7D8E5
:10BDE000A16A00291CD0274A943211460C398A6076
:10BDF0008162A36A9B888B80A16A836A0988198003
:10BE00000021836A04E0A56AAD686D5C5554491C45
:10BE10009D888D42F7D82C210A5D1A4940310A735A
:10BE2000216A002909D016490A310162226A528822
:10BE30004A80216A026A098811806168002900D05D
:10BE40004160104A0E490020B3322031C3001B1A52
:10BE500085009B180C68401C63510828F6DB094AD2
:10BE60000020EB32030185009B188C68401C635155
:10BE70000828F7DB034802992030FFF723FFA5E7E6
:10BE8000102000207824002010B50188134C1029C0
:10BE900015D0112919D01B2910D1007A00280DD1F5
:10BEA000E0780521401CFFF733F9084600F036F82A
:10BEB000002803D06169002900D0884710BD817D2A
:10BEC0000129FBD18088208110BD0021617180880B
:10BED00021898842F8D10120E8E7000010200020E5
:10BEE00010B574DF0B4C012060710B490620C8703F
:10BEF00000210948FFF7E6FE002809D1E07800F0AC
:10BF00000DF8002803D06169002900D0884700207F
:10BF100010BD00001020002098240020F1B53F4CF7
:10BF200088B0207800280AD00898E07006A800F0B1
:10BF30009BFF06980125002804D065706AE0082060
:10BF400009B0F0BD3548002707211830FFF70FF979
:10BF5000334E7078002802D0E078012807D0B078FE
:10BF600000280CD0E078012801D0022807D12169EF
:10BF7000002903D025710820884700E02771089820
:10BF8000FFF70AFCE0702169002909D0032801D0DD
:10BF9000042805D13078002802D06079002811D01B
:10BFA000A77118216846FFF7E2F868460770077224
:10BFB000E1781A480B001830FFF78EFA052E080FAB
:10BFC000191D2000A57107208847EAE7A570019098
:10BFD000684605704782078213E00221A170019034
:10BFE00068460570B18941823189018209E068465D
:10BFF00002F0BAF802E0684602F0E2F8E0780028C1
:10C0000003D0684673DF00289AD12169002901D046
:10C01000A0788847002093E7A770F6E7102000205B
:10C020007824002070B5054601461C220E48FFF713
:10C0300085F80E4C002626702968002906D00822B3
:10C04000201DFFF77BF8201D7ADF02E00748001D66
:10C050007BDF002807D1401E60806670044A002103
:10C060000448FFF781FC70BD4426002040200020DA
:10C0700009E70100F4E80100F8B5214C0146028807
:10C0800000261E48E589102A13D01E4F112A1FD002
:10C09000122A2BD0502A1AD1881DC988A94216D13C
:10C0A0004189022913D10C3000F062F900280CD12B
:10C0B00012E08A8804464280104808220C30183169
:10C0C000FFF73CF86670002D01D100F0EFFCF8BDE1
:10C0D0000021C943418046703868FFF7D5FC00282D
:10C0E000F5D0A1690029F2D08847F8BD034808229D
:10C0F0000C300831FFF722F8E7E70000402000206D
:10C1000044260020F4E8010073B586B0040023D073
:10C1100000250126684600950680458007A8019005
:10C12000218B208C6A46A4DF002813D1208C0C4977
:10C13000884213D00295039504950595218B684696
:10C140000181867241888181049001980590208C3C
:10C1500002A9A6DF08B070BD0E20FBE70820F9E7B2
:10C16000FFFF000030B585B00D46040032D0002D31
:10C1700030D00020C0432084286960620021222042
:10C1800001552868206014480FC803936B4607C305
:10C19000211D684663DF00281AD121796846817421
:10C1A000A9880182A21D04A90120A0DF00280FD1C7
:10C1B0002946204600F0A9FD002809D1294620463D
:10C1C00000F049FD002803D12946204600F0EAFC92
:10C1D00005B030BD0E20FBE7ACE8010038B5040027
:10C1E00023D0002921D0088810280FD0112812D080
:10C1F00050281BD0512818D10989228A2046914203
:10C2000013D1416A002910D0042109E089882184D2
:10C210002046032104E00021C94321842046022155
:10C220006A46117002686946904738BD881DCA8801
:10C23000A38B12319A4202D14389022B09D0238960
:10C240009A42F2D1636A002BEFD042892046984788
:10C2500038BD084600F08CF8034620460021012234
:10C260002030002B03D082706846017002E081709C
:10C2700068460270014620462268D5E730B504467C
:10C28000008C154B87B0984208D02220005D002812
:10C2900004D0142A04D9072007B030BD0820FBE7DA
:10C2A000002568460095028045800191218A208CF6
:10C2B0006A46A4DF0295039504950595218A684690
:10C2C000018101218172418881810490019805904A
:10C2D000208C02A9A6DFDFE7FFFF00007CB5054642
:10C2E00008880C460930904201D90C207CBD684674
:10C2F00071DF0028FAD121880820685420881B218A
:10C30000401C80B220802954208800A9401C80B2A3
:10C310002080401906220131FEF710FF208869466F
:10C32000801D80B220800978002900D00121295485
:10C330002088401C208000207CBD000010B50446F1
:10C34000FFF79AFE21460948FFF748FF07482146B4
:10C350002830FFF743FF204601F030FC2046FFF76E
:10C3600093FD204600F0AEF810BD0000A42300208D
:10C370004178027808021043C007C00F70470000E0
:10C380000149085C70470000BCE801000549095CF0
:10C3900005480069C840C007C00F00D00120012136
:10C3A00048407047BCE801000005005005490B5C9F
:10C3B00005494A6801209840034693438B6010402A
:10C3C000C8607047C0E801000005005010B503497F
:10C3D000085C012101F0A2FB10BD0000C0E80100D3
:10C3E00010B50349085C002101F098FB10BD000066
:10C3F000C0E801000549095C05484068C840C0071D
:10C40000C00F00D00120012148407047C0E8010062
:10C41000000500507CB50024074E2546305D012202
:10C42000009500231146019501F006FB641C082CC1
:10C43000F4D300F003F87CBDC0E8010010B500247F
:10C440002046FFF7C3FF641C082CF9D310BD10B5BC
:10C4500000242046FFF7C4FF641C082CF9D310BD4C
:10C460000246002010B5C043054B00215C5C94429D
:10C4700001D1084610BD491C0429F7D310BD0000A6
:10C48000BCE8010070B50E4E00250C463060002956
:10C490000DD0012000F0AEF8002801D0022005E008
:10C4A000002000F0A7F8002800D00B202070706852
:10C4B000002802D1FFF7A4F90546284670BD000008
:10C4C0000820002010B51C4C0188606810290DD090
:10C4D00011290AD1401E606007D1FFF791F90028A9
:10C4E00003D02168002900D0884710BD00281ED144
:10C4F00000210122084600F0A3F8002801D00728F7
:10C5000011D107220221012000F09AF8002801D061
:10C51000072808D104220221002000F091F8002809
:10C5200005D0072803D02168002900D0884760681B
:10C53000401C606010BD00000820002010B50020E5
:10C5400000F0BCF9002801D0062807D1012000F036
:10C55000B5F9002801D0062800D1002010BD000048
:10C56000F3B581B00D460198FFF77AFF0446042821
:10C5700013D21D481D4F1E4E002D27D0012D0DD06A
:10C58000022D0AD160002018C0194578002D04D072
:10C59000F168002901D028468847FEBD6100611876
:10C5A0007D5CCF19797800290BD071680A2251433C
:10C5B0000F4A8068921CFFF723FA002801D10198E6
:10C5C000B0700B48B97810300155DFE78068FFF78D
:10C5D0005BFA0748610061181030C919005D8D7859
:10C5E000A842D3D0FEBD0000C8E801004C240020C2
:10C5F000F41F002010B5FFF7C9FE10BD10B50E4A9C
:10C60000042806D007280DD00A2801D101F002FE27
:10C6100010BD1321508876DF0AE00028F8D0FFF71C
:10C620006DF910BD508805498842FAD1FFF758FCD2
:10C630000828F2D110BD0000E81F0020FFFF000015
:10C6400070B50023042811D2440004190D4D012AAD
:10C6500002D101290DD0002246008019094E80190F
:10C6600000290CD0012906D0022906D0072318463C
:10C6700070BD0E30C2B22A55F9E74270F7E78270FA
:10C68000F5E700004C24002010B5054A0146127A57
:10C690000020D20702D0084600F050F810BD00007C
:10C6A000F41F0020F8B506461F4800248660C260CB
:10C6B00041600F46B00720D50025012211462846CB
:10C6C000FFF7BEFF6D1C0446042D02D2002CF4D0EF
:10C6D00013E0002C11D17A0804211448FFF7C6F8A2
:10C6E00004000AD1FFF7B0F8040006D10F48104A41
:10C6F0000021001FFFF738F90446F00701D0FFF7CB
:10C7000089FE002C0ED109480A4A00210C38FFF797
:10C710002BF9040006D10548074A01210838FFF724
:10C7200023F904462046F8BDF41F0020D4E8010098
:10C73000CDC801006DCF01003DB80100F8B55D4CDA
:10C74000054660780026002803D000206070FFF7BF
:10C7500075FE0120584F2B00FEF7BEFE18970D0DF9
:10C760002E3D4A5F64686F686FA977777777779710
:10C770009A9DA0A9A9950020FFF73CFE00280AD0A9
:10C780000020FFF723FE022D02D1E120C0000BE0C4
:10C790007D20400108E00020FFF722FE022D01D19C
:10C7A000C82001E0FF20913025706421FEF7B0FC25
:10C7B0006168414300222BE00020FFF71BFE0028A8
:10C7C00005D00020FFF702FE19204001ECE7002011
:10C7D000FFF706FEE4E70020FFF70CFE002803D079
:10C7E0000020FFF7F3FDD3E70020FFF7F9FDD9E7BD
:10C7F0000020FFF7FFFD002803D00020FFF7E6FD33
:10C8000002E00020FFF7ECFD257060684100002287
:10C810003868FFF7F5F8064635E00020FFF7C6FD5B
:10C82000257007E000203FE025702CE060700120BB
:10C83000FFF7BCFD00226168EAE760700120FFF7A6
:10C84000B5FD606881004118E1E77868FFF71CF9E1
:10C8500006461120401B01D0002E03D00220FFF716
:10C86000B5FD10E001280BD9C82148436421FEF72B
:10C870004FFC6168002241437868FFF7C1F8064623
:10C880000220FFF7ADFD3046F8BDFFF7D7FDCBE73F
:10C89000FFF7D4FDC6E7FFF7D1FD04E0FFF7CEFDBB
:10C8A0000020FFF79DFD0120FFF79AFDBCE7FFF791
:10C8B000CEFDB9E7F41F0020C8E8010010B5FFF76E
:10C8C0005FFD032101F007F9002010BD10B50078CD
:10C8D0000221FFF745FE10BD0022D2438300044928
:10C8E0000428CA5002D3081820300277704700008D
:10C8F00074260020F0B50025ED43002A02D0002365
:10C90000042601E0042308260B4C04E09F00E759AD
:10C910007F1C04D05B1CB342F8D32846F0BD261818
:10C920005DB2203635709E00A151002AF5D1E11884
:10C9300020310877F1E70000742600200249091829
:10C9400020200856704700007426002070B5084C5F
:10C95000050009D010342168002907D0086820603C
:10C96000496828468847F6E70834F4E770BD0000B8
:10C9700060260020F8B52348416800293ED00E68A3
:10C9800021494C6887688078E11B0D022D0AED1C57
:10C99000002814D101201D4A000450601B4A403A6F
:10C9A00050601B49400008601A4908601A4901207C
:10C9B00008602F2000F090FD124901208870B542D8
:10C9C00000D23546E81900020F4B000A40331860C8
:10C9D0000D4A5168001B091B0902090A0002000ADE
:10C9E000C91C814209D9506818602F2000F074FDDD
:10C9F00001200749400480390860F8BD01F094FA2D
:10CA0000F8BD0000682000200015014040130140DF
:10CA100080E200E000E100E000100140F8B50646C9
:10CA2000108814468446801D0D46984201D90C207A
:10CA3000F8BD32880720062AFAD31927FF01184BC0
:10CA4000BA4201D99A42F3D171880629F0D3B9428A
:10CA500001D99942ECD19A4203D0994201D08A423D
:10CA6000E6D805216046295420881221401C80B256
:10CA7000208029542088401C80B2208041193088B1
:10CA800001F03CFE2188401880B220804119708856
:10CA900001F034FE2188401820800020F8BD0000FD
:10CAA000FFFF000010B5FEF729FF10BDF8B51648CE
:10CAB00000F04EFA144D00260C3D144C002807D00F
:10CAC000616900291CD001206A461070684616E092
:10CAD0002878002805D06169002911D068460670C1
:10CAE0000DE0687800280DD0A16809480022006890
:10CAF000FEF786FF002803D0A169002900D08847EF
:10CB00002E70F8BD6168F0E74C200020442600201C
:10CB1000F4E8010070B516460D460CA0FEF7B8FC0F
:10CB2000002405E0285DFFF737F80028FAD1641CDF
:10CB3000B442F7D30D20FFF72FF80028FAD10A20CE
:10CB4000FFF72AF80028FAD170BD0000536572760D
:10CB500069636520313A200D0A00000070B5164661
:10CB60000D460CA0FEF794FC002405E0285DFFF7BD
:10CB700013F80028FAD1641CB442F7D30D20FFF754
:10CB80000BF80028FAD10A20FFF706F80028FAD19E
:10CB900070BD00005365727669636520323A200DDE
:10CBA0000A000000F0B5002405460F46601C01078E
:10CBB0008FB0090F08A8103108940170601C01079C
:10CBC000090F08A8103141708178F9263140891C7D
:10CBD00081701C2101A8FEF7CAFA68460179F52088
:10CBE0000140102001436846017108A80690012009
:10CBF0000146029405940494079400946846103109
:10CC0000417001200146684610310170817808208A
:10CC10003140891C0143EF20014001263143684621
:10CC20008170297908A881717989684681841421E5
:10CC30000AA8FEF79CFA09A80A9068460B90068697
:10CC40001421448681862B46E88818330AAA01A954
:10CC5000A2DF0FB0F0BDF0B5002405460F46601C02
:10CC600001078FB0090F08A8103108940170601CEB
:10CC70000107090F08A8103141708178F926314069
:10CC8000891C81701C2101A8FEF771FA68460179A0
:10CC900002200143F7200140EF2211406846017154
:10CCA00008A8069001200146029405940494079474
:10CCB00000946846103141700120014668461031E9
:10CCC0000170817808203140891C01431140012600
:10CCD000314368468170297908A88171398968468D
:10CCE000818414210AA8FEF742FA09A80A9068462E
:10CCF0000B9006861421448681862B46E8881033E3
:10CD00000AAA01A9A2DF0FB0F0BDF0B58FB00F469F
:10CD100005461C216846FEF72AFA68460178FD2080
:10CD2000014008200143EF221140684601700024B1
:10CD3000601C01070194090F039404940594069460
:10CD40006846103107944177817FF9200140F72030
:10CD5000891C0140114001263143684681772979B9
:10CD600008A88170F98868460184142109A8FEF793
:10CD7000FEF908A8099007A80A906846868514213C
:10CD8000C48501862B46E888083309AA6946A2DFD4
:10CD90000FB0F0BDF8B500260124154D23E06968F9
:10CDA000F0004718387821462A698140114218D08E
:10CDB0008A432A6100F0BCFC3A782146EB68914036
:10CDC00019400346934099420BD17978012901D04B
:10CDD000012100E000217B684140002B01D010467A
:10CDE0009847761CF6B228788642D8D3F8BD000062
:10CDF0005420002010B50E4900230A784C78A24236
:10CE000012D0521CD2B20A70022A00D10B700A78DA
:10CE1000074B920018339A58026088681018000275
:10CE2000000A8860012010BD0360002010BD0000D2
:10CE300068200020826883881A4003689A5C0A7020
:10CE40008168491C81607047C26883881A40036802
:10CE50009954C168491CC160704710B50446C0B2FE
:10CE6000FEF79AFE204610BD002804D00349496E03
:10CE70000160002070470320704700001827002041
:10CE8000F8B50746104E0125BD403068FEF7FCFDA1
:10CE900000280DD10D4C2069284207D1384600F0FA
:10CEA00047FC0028E06804D0284303E0A843206141
:10CEB000F8BDA843E0602069002228432061A168F2
:10CEC0003068FEF79DFDF8BDFCE80100542000200D
:10CED000F8B51E4C2078002836D0E06800260028DF
:10CEE0000CD00025607800282ED1684652DF052836
:10CEF00006D0002806D0FEF701FD0BE00125F1E782
:10CF0000012607E0009800F03DFB2169002901D0CF
:10CF100000988847002D13D16078002814D16088CC
:10CF200069460880A06861DF052804D0002804D085
:10CF3000FEF7E4FC04E0012502E0E168A068884710
:10CF4000002ECFD0002DE5D0F8BD0000A820002095
:10CF5000418805480288914204D34088814201D823
:10CF600001207047002070474420002010B504487D
:10CF7000017AC90702D00078FFF7E0FB10BD00007E
:10CF8000F41F0020F0B5284C2146103948688B6802
:10CF9000227886469C46CF78667836E0182353433D
:10CFA0006168521CC918A378D2B2934200D1002202
:10CFB0000B78022B02D0032B27D123E003464D68C8
:10CFC000194603E0A94204D00B46C96900291CD0C8
:10CFD000F8E7002919D08B4208D1C069002805D193
:10CFE000124F0125BD600025AC4601270D68C969B7
:10CFF000D961002909D00B685B190B6005E0017449
:10D00000C06900E000210028F9D19642C6D1064946
:10D01000624610398A604860CF70704501D00120A7
:10D02000F0BD0020F0BD000078200020001001407D
:10D03000F8B52C4E044670680025009041E0002CA5
:10D0400002D02046E46920E02648182310300178F9
:10D0500042684B43491CC9B2D21801708378994287
:10D0600000D105701178506801292CD1017C00296C
:10D0700029D191684160D16881601169C1605169AD
:10D080008161F178002900D045604368B268164F8D
:10D09000991A0902090AB94202D28268891806E07F
:10D0A000D11A09028268090A8A4202D9511A01601A
:10D0B00000E005604560012185600174C56101F0F3
:10D0C00065F9002CBBD107481030017840788142C7
:10D0D000BAD171680098814201D00120F8BD0020CA
:10D0E000F8BD000068200020FFFF7F000023A8B0EB
:10D0F000784A05211846FEF74FFC002801D0FEF7BC
:10D10000FDFB182274496846FEF718F8FF2101312B
:10D110007248069040180791099108900323704ABD
:10D1200006A96846FEF7E0FC002801D0FEF7E6FB02
:10D130006C4A6D490320FFF7B5FA002801D0FEF7CD
:10D14000DDFB69460020FFF79DF9002801D0FEF7BE
:10D15000D5FB6846007802287ED000206946087119
:10D160005D485E49001F00680590002348225C3935
:10D1700005A801F08FF8002801D0FEF7BFFB6A4632
:10D180000121002001F06EF8002801D0FEF7B6FB67
:10D19000684601F05DF8002801D0FEF7AFFB534868
:10D1A00001F04CF8002801D0FEF7A8FB11206946D9
:10D1B000087208224EA102A87CDF002801D0FEF7E9
:10D1C0009DFB0024009410216846019401803C21BD
:10D1D0004180FF2184809131C1807ADF002801D015
:10D1E000FEF78CFB00F076FF3C2101A8FDF7BFFFA6
:10D1F00002256846057184710521C1713C2110A882
:10D20000FDF7B5FF10A805823C48159020211FA806
:10D21000FDF7ADFF012118A8C17740202390B4206D
:10D220002490374B1FAA10A9009401A8FEF77EFD99
:10D23000002801D0FEF762FB1C216846FDF797FF2E
:10D240000520C00301900F200004029000940321E8
:10D2500068460173C48100E039E0047429480590F0
:10D26000294806906846FEF7DDFE002801D0FEF74B
:10D2700045FB26A0FEF70CF90320FEF74FFE002821
:10D2800001D0FEF73BFB1D4D00242D1F2878002800
:10D2900017D021460F48641CE4B27830FEF734FF03
:10D2A0001F491E480968020100BF00BF00BF00BF40
:10D2B00000BF00BF00BF00BF914200D000BF0138D7
:10D2C000F2D148DF0028E1D0FEF718FBDEE70120AD
:10D2D00044E700002C23002094E801002C210020CA
:10D2E000CDE40100FDC50100CD0C00003DC30100EF
:10D2F0004B686F61204E524600000000EC1F00207A
:10D300009BDB010089DC0100A5CA01000D0A554123
:10D310005254205374617274210D0A0040420F0070
:10D32000BC20002070B5144682880E460546208831
:10D33000111D4118921C994201D8FE2A01D90C20D6
:10D3400070BD521C32542088FF21401C80B22080C6
:10D3500031542088401C80B220808119288801F037
:10D36000CDF92188401880B22080AA88002A09D0EF
:10D37000A968002908D08019FDF7E0FE2088A98857
:10D3800040182080002070BD072070BDF8B50F4602
:10D39000017814460546012902D16878002806D094
:10D3A0002088821C9A422DD8012902D006E007204D
:10D3B000F8BD69784118891C994223D8181A801E33
:10D3C00086B2684606802188B81C081869467DDF49
:10D3D0000028EDD12878022805D169460988B14294
:10D3E00001D809210AE00821012805D16878B04256
:10D3F00002D86A46108001E06846068068460088C8
:10D40000FE2801D90C20F8BD2288401CB854208881
:10D41000401C80B22080395420886946401C2080FE
:10D420000988401820800020F8BD000000B5094898
:10D43000018C008DC9B20006000F012907D103003D
:10D44000FEF74AF8040303050305012000BD002090
:10D4500000BD0000C00F00F000B50948018C008D30
:10D46000C9B20006000F012908D10300FEF734F805
:10D470000506060406040600012000BD002000BDCC
:10D48000C00F00F000B50B48018C008DC9B200063A
:10D49000000F01290CD10300FEF71EF80D0A0A0A3D
:10D4A0000A0A08080A0A0A080A0A0800012000BD38
:10D4B000002000BDC00F00F0C20843075B0F012031
:10D4C000895C98400840704701218907401800682E
:10D4D000002800D00120704700280FD00849094AD1
:10D4E000096800BF00BF00BF00BF00BF00BF00BF92
:10D4F00000BF914200D000BF0138F2D17047000058
:10D50000BC2000200024F40070B50E4C00252078CB
:10D51000002801D0852513E00021A1606160216110
:10D52000E160094800680126304002D1032100F083
:10D530002FF800F0DBFE002801D104488661267038
:10D54000284670BD6026002000E100E00005004094
:10D5500038B50020694608706846FEF73DFB084C68
:10D560002078002801D1FFF7CFFFE068401CE06081
:10D570000120A07068460078FEF74CFB38BD000023
:10D580006026002010B5002801D1FFF7DFF910BD9B
:10D590008207D30EFF229A408907090E10B59940E1
:10D5A00000280BDA03071B0F083B9C080C4BA40058
:10D5B000E318DC6994430C43DC6107E08408094B01
:10D5C000A400E418236893430B432360C106C90EEB
:10D5D00001208840044908600449086010BD00002B
:10D5E00000ED00E000E400E080E200E000E100E0A7
:10D5F000F3B581B0054600F07FFC1F4F0028284698
:10D6000017D0FFF79BF9C0192030007F800903284D
:10D6100002D001280BD005E018480069E840C00797
:10D62000C00F04D00321284600F066FAFEBD022197
:10D63000F9E700F06DFC0028F8D02846FFF77EF9E6
:10D6400004468000C11D0E4AF9318018026989B272
:10D65000012632430261084600F080FA0298002851
:10D66000E4D02846FFF76AF9800038580028DDD05A
:10D670000448A6404660FEBD742600200005005008
:10D680000065004000630040FEB5044625480E4694
:10D690000019202141560027C8171346401C01D00D
:10D6A00008273CE0F27819462046FFF723F90546A3
:10D6B000401C33D0B07800280BD005200007A10013
:10D6C0000918072000020918086802229043086020
:10D6D00007E000217378204600910A46019100F08E
:10D6E000BFF9F078002810D00F48AA001018317840
:10D6F00002690E4B1A400261E206D20C8907890BBF
:10D700000A4301690A43026109E006483278401978
:10D710002030017F92011143017700E00427384651
:10D72000FEBD00007426002000650040FFE0FCFF05
:10D7300003490969C140C807C00F00D001207047E4
:10D740000005005070B5144D2879002801D008203C
:10D7500070BD114900204039421E0B182033401C77
:10D76000C0B21A702028F8D300242046FFF7B4F87E
:10D77000641CE4B2082CF8D303210620FFF708FF4D
:10D78000FF207D3000F0EAF901200449C00748601D
:10D7900001202871002070BDB426002000630040E5
:10D7A00002480079002800D001207047B4260020EC
:10D7B000F8B506460F4600791C2148431A4915461C
:10D7C0004418E07E002801D00820F8BD39463046D4
:10D7D000FEF736FA65603869206028460025002883
:10D7E00013D0FF223068397F1D328550FF22306808
:10D7F00045328550032330681B020C4AC018426032
:10D800003068000B40B2FFF7C3FE052230680421E8
:10D81000120280180160E5752576A5750121E17673
:10D820002846A576F8BD0000BC2600208000020036
:10D83000F8B503791C246343134C81251C19032775
:10D8400066680023AD003F02002E02D00668F6197C
:10D85000B560E67D002E0ED0237E002B07D06168D8
:10D86000002902D00068C01945601120F8BD21616F
:10D870000123227604E0E2750025E16065762576D5
:10D8800000F01AF8F8BD0000BC26002070B5044670
:10D8900000791C21074D48434019807E002808D19B
:10D8A000204600F080FB20791C22012150434019C2
:10D8B000817670BDBC260020F8B5044600791C2195
:10D8C000484326494518A87E184302D1204600F057
:10D8D0006AFB6868002808D081210322206889003B
:10D8E0001202801841600020F8BDFF2045302168F9
:10D8F00000220A50FF212531206800F041F9064638
:10D90000FF210931206800F03BF90090FF214531EB
:10D91000206800F035F90746009838433043E9D0D5
:10D920003046384307D12946206800F01FFBE87DC8
:10D93000697E8842DED80020E875002E01D00320E1
:10D94000F8BD002F01D00F20F8BDA97E01200029CD
:10D95000216801D00860C6E74860C4E7BC26002003
:10D9600070B505460C4600791C2148430849431808
:10D97000284600F055F8002801D0112070BD9A7596
:10D9800000209C609882284600F004F870BD0000DA
:10D99000BC260020F8B5044600791C2148431F49E5
:10D9A00000264518FF2720681D37C6512068012131
:10D9B00081602946206800F06DFD6968002913D058
:10D9C00027E0FF270137FF211D31206800F0D8F83C
:10D9D000002802D1A88AB842F5D1A88AB84203D05B
:10D9E0002946206800F056FDA88AA97D8842E8D320
:10D9F000A98AC81FF9380ED0FF271D37394620687D
:10DA000000F0BEF80028F9D020680121C160002094
:10DA1000A8753046F8BD0F26F9E70000BC260020A7
:10DA200000791C21484303494018807D002800D01C
:10DA300001207047BC26002070B552000A439900AF
:10DA4000049D0A432902059E0A43310405240A4322
:10DA5000240780000721001909024018026070BDE8
:10DA600070B552000A439900049D0A432902059E9D
:10DA70000A43310405240A432407800007210019C2
:10DA800009024018026070BD70B552000A43990047
:10DA9000049D0A432902059E0A43310405240A43D2
:10DAA000240780000721001909024018026070BD98
:10DAB0001CB500220B46009211460192FFF7E4FFCD
:10DAC0001CBD1CB5002100910B460122019111469D
:10DAD000FFF7DAFF1CBD052212078000821807201D
:10DAE00000021018026803231B049A4302600268B4
:10DAF00009040A4302607047052212078000821859
:10DB0000072000021018026803231B049A430260D6
:10DB1000026809040A430260704700000122824043
:10DB20000348002901D082607047C260704700003E
:10DB30000005005038B5084B05241B6800932402EB
:10DB40006B46411805E085005D592D192D69401C73
:10DB500020C28142F7D838BDF8E8010002494018D8
:10DB60000021016070470000006000400349401838
:10DB70000068012800D000207047000000600040CD
:10DB80004058002800D0012070470322120280185C
:10DB90004068084000D00120704710B5002809D027
:10DBA000032806D10220FEF76FFD002801D0FDF703
:10DBB000A5FE10BD00F02EFB10BD000030B50446E0
:10DBC0000088304D89B03A2838D00DDC022839D091
:10DBD000102813D011281AD0132822D100231A4656
:10DBE000852168887FDF26E051282FD052281DD05C
:10DBF000552816D1A088132176DF1CE00720FEF7F8
:10DC000043FD002801D0FDF779FEA08808E0002040
:10DC1000FEF73AFD002801D0FDF770FE0020C0435A
:10DC2000688009B030BDFDF769FEFAE700231A46A7
:10DC300019466888A9DF0028F5D1F2E7A0881321EA
:10DC400076DFF8E7A088002167DFF4E71022A11D46
:10DC500004A8FDF773FA6846007C0028E1D0694605
:10DC6000097E042903D0062901D00529D9D102282B
:10DC700000D0012069460870FF2083308880A0888A
:10DC8000A8DFD8E7E81F002010B50078002807D1EA
:10DC900004483B21408876DF002801D0FDF72EFEA6
:10DCA00010BD0000E81F0020F8B5074608780025E1
:10DCB0000124194E0300FDF70FFC050409100E1492
:10DCC000080016A0FDF7E4FB3470F8BD1CA0FDF7BA
:10DCD000DFFB3570F8BD23A000E028A0FDF7D8FBDE
:10DCE000F8BD2DA0FDF7D4FB15213048FDF73FFA14
:10DCF0002FA234A12D48FDF7DBFB334E2B483470A7
:10DD0000B580B471FDF73EFA70812848F060388C18
:10DD10003146A8DFF8BD0000E81F0020424C455FF7
:10DD20004355535F4556545F4E4F5449464943410E
:10DD300054494F4E5F454E41424C45440D0A000048
:10DD4000424C455F4355535F4556545F4E4F5449CF
:10DD50004649434154494F4E5F44495341424C4523
:10DD6000440D0A00424C455F4355535F4556545F8E
:10DD7000434F4E4E45435445440D0A00424C455FC7
:10DD80004355535F4556545F444953434F4E4E45A8
:10DD9000435445440D0A0000424C455F4355535FD0
:10DDA0004556545F524541440D0A0000F4230020BB
:10DDB0005472756F6E672042616368204B686F61B3
:10DDC0000000000025730000C0200020F8B50746C1
:10DDD000087800250124194E0300FDF77DFB05049A
:10DDE00009100E14080016A0FDF752FB3470F8BDA0
:10DDF0001DA0FDF74DFB3570F8BD25A000E02BA060
:10DE0000FDF746FBF8BD31A0FDF742FB1521344874
:10DE1000FDF7ADF933A236A13148FDF749FB354E88
:10DE20002F483470B580B471FDF7ACF970812C487F
:10DE3000F060388C3146A8DFF8BD0000E81F0020F4
:10DE4000424C455F4355535F4556545F4E4F5449CE
:10DE50004649434154494F4E5F454E41424C45442B
:10DE60002032200D0A000000424C455F4355535FAD
:10DE70004556545F4E4F54494649434154494F4ECD
:10DE80005F44495341424C454420320D0A00000092
:10DE9000424C455F4355535F4556545F434F4E4E8A
:10DEA000454354454420320D0A000000424C455F72
:10DEB0004355535F4556545F444953434F4E4E4577
:10DEC0004354454420320D0A00000000424C455F97
:10DED0004355535F4556545F524541440D0A000077
:10DEE000F423002044616E67204B686F61000000DE
:10DEF00025730000C0200020044908182021415645
:10DF0000042901DB0120704700207047742600209F
:10DF10000449081820214156042901D201207047E4
:10DF2000002070477426002070B501240B4960045E
:10DF300008600B4940108860094940398860094DE4
:10DF40006C602F20FFF7C8FAAC60074D00242F202B
:10DF5000AC60FFF7C1FAAC7070BD000080E100E07A
:10DF600040130140001001406820002030B5FF221E
:10DF70000523CD7D002409321B02C318002D8450D7
:10DF8000986905D04B7ECA68D054487E401C4876BC
:10DF900030BD1FB501246B461C701972019206C872
:10DFA000684690471FBDFF23253302680021D150EA
:10DFB000FF2302680933D1500068012101607047D6
:10DFC00010B50446FDF7A4FA00280CD0A007C00E37
:10DFD000002C0ADA2107090F08398908144A890038
:10DFE0008918C96906E0134810BDA108124A8900C2
:10DFF00089180968C1400806800F042811D200283A
:10E000000FD002280DD00D494B68E206D20E012038
:10E010009040002B08D0620992008B5803438B502C
:10E0200004E00448401C10BD05490860002010BDF4
:10E0300000ED00E00120000000E400E09C20002052
:10E0400000E100E0FFB50746806A81B01446002871
:10E050003DD0002538462030009033E00C20B96ACE
:10E0600068430E18B088801CFE2802D90C2005B029
:10E07000F0BD22880299401C885420881622401C3A
:10E0800080B2208002990A542088401C80B22080EF
:10E0900002994118308800F031FB2188401880B285
:10E0A0002080B288002A0AD0B16800290FD0029BD4
:10E0B000C018FDF743F82088B188401820806D1CF7
:10E0C0000098EDB2007BA842C8D80020CFE7072017
:10E0D000CDE7000000B58BB014216846FDF747F886
:10E0E0000120014668461031C1730120014668468F
:10E0F0001031817317480490174805210090890258
:10E1000068468180491CC180491C0181491C4181AC
:10E1100069461248FEF726F8142105A8FDF727F8EE
:10E120000F4809900F4815210590090268460183A0
:10E13000491C4183491C8183491CC183074805A9A7
:10E140002830FEF70FF8002801D0FDF7D7FB0BB001
:10E1500000BD000015CB0100A9DC0100A4230020B4
:10E160005DCB0100CDDD010070B504461248134DB2
:10E17000018A2182818A61820078002818D068791A
:10E18000002815D100F078FB002811D02846203057
:10E19000E06002200849207204202031C87006483F
:10E1A00000212030FDF78EFD002804D1052000E07D
:10E1B0000320A870002070BD7824002010200020CB
:10E1C00070B5044611480426018B2182818B61823F
:10E1D00000780F4D002816D06879002813D100F080
:10E1E0004BFB00280FD028462030E0600220207230
:10E1F000064800212030C670FDF764FD002804D1D8
:10E200000620A87000E0AE70002070BD78240020C9
:10E210001020002010B50020FEF736FA002801D0AB
:10E22000FDF76CFBFEF78AF9002801D0FDF766FBCD
:10E230003CDF002801D0FDF761FB10BD002803D0B2
:10E240000249C860002070470E207047A8200020B7
:10E250001CB5034901910091694660DF1CBD0000B7
:10E26000E81F002070B50E460546144614211046DE
:10E27000FCF77DFF0120002120802161217326729F
:10E280006572002D00D0A072002070BD10B5FDF7A2
:10E2900027FB10BDF8B5002903D08C070025002C02
:10E2A00001D00720F8BD0E4E0E4FB1607280736032
:10E2B00039680124214003D00A49254680310C6089
:10E2C000094910DF002803D0002DEBD03C60F8BDD9
:10E2D0003470FFF73DF91620FFF772FEF8BD00001D
:10E2E000A820002000E100E08DE201000148007854
:10E2F00070470000A8200020FEB51F4C0025A7682D
:10E30000606802906846FEF775FD0190FEF73AFEE0
:10E3100006460198002822D000230098616817E083
:10E320000E680A46864202D9301A086012E0801B45
:10E33000F31800261660D668D169B446002E07D0BF
:10E34000FE183602360A566066469660D561154656
:10E350000029E5D128466160FEF76AFE06E02846FE
:10E36000FEF766FE002801D1002E02D00298FEF7CB
:10E3700001FB0020E070FEBD682000200120024962
:10E38000000508607047000000E200E010B50E4B89
:10E390005968002906D002680C68A24204D8A21A63
:10E3A0000A60C161586010BD0B4604E00B46C969A4
:10E3B000121B002904D00C689442F7D3A41A0C60F5
:10E3C0000260C161D86110BD682000207CB50D4697
:10E3D0000646002469460C706846FDF7FDFB01A85F
:10E3E00000F0C4F900280DD0057046606846084961
:10E3F0000079487068460078FDF70CFCFFF7BEFF17
:10E4000020467CBD684604240078FDF703FCF7E74E
:10E4100078200020F8B51D4D6C68002C34D01C48C5
:10E4200000274068A968401A0602360A2068B042F0
:10E4300018D8361AC7192246107CE46900280FD074
:10E4400000201074EB68002B07D091695069984741
:10E45000002805D0FDF752FA02E05169906988471B
:10E46000002CE3D129786878814206D1401CC0B2E3
:10E470006870022801D10020687004490006800DF0
:10E4800018310F50FFF77AFFF8BD00006820002018
:10E4900000150140FF221D32002383508B8A8A68B9
:10E4A000D25C8B8A5B1C8B82052109024018C261F9
:10E4B00070471FB500226B461A701972816801916E
:10E4C000827506C8684690471FBD000070B5017888
:10E4D000002907D0012901D0022902D14068FDF7A7
:10E4E0000DFA70BD0F4C0E4D60782818FDF7E0FA5C
:10E4F0006078401CC2B2A81862702038C07F0A2819
:10E5000001D0142AEDD306490748FDF7B7FE0828C5
:10E5100003D0002801D0FDF7F1F90020607070BD34
:10E5200018210020E81F0020A42300207CB50178DA
:10E53000264D002934D001290CD002292DD16A465C
:10E540001170C068691C01900122C81DFFF770F9A5
:10E55000684630E0406801781D48FDF7F8F901266B
:10E560001B4C002803D069460E70019006E0A0689D
:10E57000E168814205D00020694608700846696854
:10E580008847A068E168081AA188884206D80F4920
:10E590000122491CC81DFFF74BF97CBDAE707CBD44
:10E5A0000B480A491030FDF7B5F9002806D00320C2
:10E5B000694608706846696888477CBD034901223E
:10E5C00008460830FFF7CCF97CBD00008820002009
:10E5D000F8260020F0B50C46012185B00546490219
:10E5E000FFF7D3FA032109026F180026002826D06E
:10E5F000FF2125312846FFF7C3FA00281FD0FF204E
:10E6000025302E5081208000B860A07E002801D1E6
:10E61000012068600221684601700920C0012918A4
:10E62000086808600390E17D68460172E068019027
:10E63000E675267606CC6846083C90472DE0042116
:10E640002846FFF7A2FA002827D0FF2109312846E3
:10E65000FFF796FA002820D021462846FFF786FCCF
:10E66000E07D617E884218D1207E002807D0617E3F
:10E67000E268E0752069E060267666760AE0A07EB2
:10E68000002801D10120686081208000B860E67513
:10E69000617EE2682046FFF77CFCFF271D37394684
:10E6A0002846FFF76DFA00280FD0A08AA17D884286
:10E6B00004D221462846FFF7EDFE06E0EE51A17D8B
:10E6C000002902D02046FFF7F4FEFF2745373946E0
:10E6D0002846FFF755FA00280ED0EE51A07E0028FC
:10E6E00001D001202860E07D002805D0E675617E1C
:10E6F000E2682046FFF74DFC05B0F0BD0870000A47
:10E70000487002207047000038B51549154A4888FE
:10E7100090420FD04A78144C521CD2B24A70237BDC
:10E72000934208D3091D75DF002803D0A169002991
:10E7300000D0884738BD00254D70217C002907D0C6
:10E740003B2176DF002803D0A169002900D088474B
:10E7500061690029EED068460570884738BD000021
:10E7600040200020FFFF00004426002010B509498A
:10E770004B788C785A1CD2B2944200D100220C788B
:10E78000944201D1002010BD0270486818214B430B
:10E79000C01810BD78200020FFB583B016460C9D30
:10E7A0000D9C1F46022200950194039800F00CF87E
:10E7B000002807D13B46102231460095019403986A
:10E7C00000F002F807B0F0BDFFB583B007460020A7
:10E7D0000C9C8646268805463AE07868A9004218CF
:10E7E0001188684681805188C1800022694601A84D
:10E7F00065DF002839D1684601780598814226D125
:10E800007046002801D0002200E0022220888918EA
:10E8100042180D998A4227D8714600290AD1401C16
:10E8200080B22080069A049911542088401C2080D0
:10E8300001208646218806980A18694601A865DFE6
:10E84000002812D1694620880978401820806D1C64
:10E850003888A842C1DC704600280AD02088801B76
:10E86000401E80B2FF2802D90C2007B0F0BD0699E7
:10E8700088550020F9E7000004480179002902D1F9
:10E88000007B002800D001207047000030200020CD
:10E89000010000070B000000090000000800000054
:10E8A0000A0000000000000000E0D701BC8ABF455C
:10E8B000CA0550BA4042B000C9AD64F31112131436
:10E8C00015161718000000000C2400202C2400202E
:10E8D000582400201100030061C50100120003004C
:10E8E00061C501001300030061C5010014000300AD
:10E8F00061C501002426002000000050D826002019
:10E9000003000000FFFFFFFFFFFFFFFFFFFFFFFF10
:10E91000FFFFFFFF000000000000000000E0D70143
:10E920000300000044E90100E81F0020D8000000B7
:10E93000F2B401001CEA0100C0200020C00E00005B
:10E9400002B501000000FFFF0014010000150100E6
:10E9500000000000000000000000000000000000B7
:10E9600000000000000000000000000000000000A7
:10E970000000000000000000000000000000000097
:10E98000000000000000000000000000E42500205E
:10E99000000000000426002000000000000000002D
:10E9A0000000000000000000000000000000000067
:10E9B0000000000000000000000000000000000057
:10E9C0000000000000000000000000000000000047
:10E9D0000000000000000000000000000000000037
:10E9E00000000000000000000000000000200040C7
:10E9F0000000000000000000000000000000000017
:10EA00000000000000000000000000000000000006
:0CEA100000000000000000000024F400E2
:040000050001B0C185
:00000001FF
